{
  "_format": "hh-sol-artifact-1",
  "contractName": "BdexRouter",
  "sourceName": "contracts/BdexRouter.sol",
  "abi": [
    {
      "anonymous": false,
      "inputs": [
        {
          "indexed": false,
          "internalType": "address",
          "name": "pair",
          "type": "address"
        },
        {
          "indexed": false,
          "internalType": "uint256",
          "name": "amountOut",
          "type": "uint256"
        },
        {
          "indexed": false,
          "internalType": "address",
          "name": "output",
          "type": "address"
        }
      ],
      "name": "Exchange",
      "type": "event"
    },
    {
      "inputs": [],
      "name": "WETH",
      "outputs": [
        {
          "internalType": "address",
          "name": "",
          "type": "address"
        }
      ],
      "stateMutability": "view",
      "type": "function"
    },
    {
      "inputs": [
        {
          "internalType": "address",
          "name": "pair",
          "type": "address"
        },
        {
          "internalType": "address",
          "name": "tokenA",
          "type": "address"
        },
        {
          "internalType": "address",
          "name": "tokenB",
          "type": "address"
        },
        {
          "internalType": "uint256",
          "name": "amountADesired",
          "type": "uint256"
        },
        {
          "internalType": "uint256",
          "name": "amountBDesired",
          "type": "uint256"
        },
        {
          "internalType": "uint256",
          "name": "amountAMin",
          "type": "uint256"
        },
        {
          "internalType": "uint256",
          "name": "amountBMin",
          "type": "uint256"
        },
        {
          "internalType": "address",
          "name": "to",
          "type": "address"
        },
        {
          "internalType": "uint256",
          "name": "deadline",
          "type": "uint256"
        }
      ],
      "name": "addLiquidity",
      "outputs": [
        {
          "internalType": "uint256",
          "name": "amountA",
          "type": "uint256"
        },
        {
          "internalType": "uint256",
          "name": "amountB",
          "type": "uint256"
        },
        {
          "internalType": "uint256",
          "name": "liquidity",
          "type": "uint256"
        }
      ],
      "stateMutability": "nonpayable",
      "type": "function"
    },
    {
      "inputs": [
        {
          "internalType": "address",
          "name": "pair",
          "type": "address"
        },
        {
          "internalType": "address",
          "name": "token",
          "type": "address"
        },
        {
          "internalType": "uint256",
          "name": "amountTokenDesired",
          "type": "uint256"
        },
        {
          "internalType": "uint256",
          "name": "amountTokenMin",
          "type": "uint256"
        },
        {
          "internalType": "uint256",
          "name": "amountETHMin",
          "type": "uint256"
        },
        {
          "internalType": "address",
          "name": "to",
          "type": "address"
        },
        {
          "internalType": "uint256",
          "name": "deadline",
          "type": "uint256"
        }
      ],
      "name": "addLiquidityETH",
      "outputs": [
        {
          "internalType": "uint256",
          "name": "amountToken",
          "type": "uint256"
        },
        {
          "internalType": "uint256",
          "name": "amountETH",
          "type": "uint256"
        },
        {
          "internalType": "uint256",
          "name": "liquidity",
          "type": "uint256"
        }
      ],
      "stateMutability": "payable",
      "type": "function"
    },
    {
      "inputs": [
        {
          "internalType": "address",
          "name": "tokenA",
          "type": "address"
        },
        {
          "internalType": "address",
          "name": "tokenB",
          "type": "address"
        },
        {
          "internalType": "uint256",
          "name": "amountA",
          "type": "uint256"
        },
        {
          "internalType": "uint256",
          "name": "amountB",
          "type": "uint256"
        },
        {
          "internalType": "uint32",
          "name": "tokenWeightA",
          "type": "uint32"
        },
        {
          "internalType": "uint32",
          "name": "swapFee",
          "type": "uint32"
        },
        {
          "internalType": "address",
          "name": "to",
          "type": "address"
        }
      ],
      "name": "createPair",
      "outputs": [
        {
          "internalType": "uint256",
          "name": "liquidity",
          "type": "uint256"
        }
      ],
      "stateMutability": "nonpayable",
      "type": "function"
    },
    {
      "inputs": [
        {
          "internalType": "address",
          "name": "token",
          "type": "address"
        },
        {
          "internalType": "uint256",
          "name": "amountToken",
          "type": "uint256"
        },
        {
          "internalType": "uint32",
          "name": "tokenWeight",
          "type": "uint32"
        },
        {
          "internalType": "uint32",
          "name": "swapFee",
          "type": "uint32"
        },
        {
          "internalType": "address",
          "name": "to",
          "type": "address"
        }
      ],
      "name": "createPairETH",
      "outputs": [
        {
          "internalType": "uint256",
          "name": "liquidity",
          "type": "uint256"
        }
      ],
      "stateMutability": "payable",
      "type": "function"
    },
    {
      "inputs": [],
      "name": "factory",
      "outputs": [
        {
          "internalType": "address",
          "name": "",
          "type": "address"
        }
      ],
      "stateMutability": "view",
      "type": "function"
    },
    {
      "inputs": [],
      "name": "formula",
      "outputs": [
        {
          "internalType": "address",
          "name": "",
          "type": "address"
        }
      ],
      "stateMutability": "view",
      "type": "function"
    },
    {
      "inputs": [
        {
          "internalType": "address",
          "name": "_factory",
          "type": "address"
        },
        {
          "internalType": "address",
          "name": "_WETH",
          "type": "address"
        }
      ],
      "name": "initialize",
      "outputs": [],
      "stateMutability": "nonpayable",
      "type": "function"
    },
    {
      "inputs": [
        {
          "components": [
            {
              "internalType": "address",
              "name": "pool",
              "type": "address"
            },
            {
              "internalType": "address",
              "name": "tokenIn",
              "type": "address"
            },
            {
              "internalType": "address",
              "name": "tokenOut",
              "type": "address"
            },
            {
              "internalType": "uint256",
              "name": "swapAmount",
              "type": "uint256"
            },
            {
              "internalType": "uint256",
              "name": "limitReturnAmount",
              "type": "uint256"
            },
            {
              "internalType": "uint256",
              "name": "maxPrice",
              "type": "uint256"
            }
          ],
          "internalType": "struct IBdexRouter.Swap[][]",
          "name": "swapSequences",
          "type": "tuple[][]"
        },
        {
          "internalType": "address",
          "name": "tokenIn",
          "type": "address"
        },
        {
          "internalType": "address",
          "name": "tokenOut",
          "type": "address"
        },
        {
          "internalType": "uint256",
          "name": "totalAmountIn",
          "type": "uint256"
        },
        {
          "internalType": "uint256",
          "name": "minTotalAmountOut",
          "type": "uint256"
        },
        {
          "internalType": "uint256",
          "name": "deadline",
          "type": "uint256"
        }
      ],
      "name": "multihopBatchSwapExactIn",
      "outputs": [
        {
          "internalType": "uint256",
          "name": "totalAmountOut",
          "type": "uint256"
        }
      ],
      "stateMutability": "payable",
      "type": "function"
    },
    {
      "inputs": [
        {
          "components": [
            {
              "internalType": "address",
              "name": "pool",
              "type": "address"
            },
            {
              "internalType": "address",
              "name": "tokenIn",
              "type": "address"
            },
            {
              "internalType": "address",
              "name": "tokenOut",
              "type": "address"
            },
            {
              "internalType": "uint256",
              "name": "swapAmount",
              "type": "uint256"
            },
            {
              "internalType": "uint256",
              "name": "limitReturnAmount",
              "type": "uint256"
            },
            {
              "internalType": "uint256",
              "name": "maxPrice",
              "type": "uint256"
            }
          ],
          "internalType": "struct IBdexRouter.Swap[][]",
          "name": "swapSequences",
          "type": "tuple[][]"
        },
        {
          "internalType": "address",
          "name": "tokenIn",
          "type": "address"
        },
        {
          "internalType": "address",
          "name": "tokenOut",
          "type": "address"
        },
        {
          "internalType": "uint256",
          "name": "maxTotalAmountIn",
          "type": "uint256"
        },
        {
          "internalType": "uint256",
          "name": "deadline",
          "type": "uint256"
        }
      ],
      "name": "multihopBatchSwapExactOut",
      "outputs": [
        {
          "internalType": "uint256",
          "name": "totalAmountIn",
          "type": "uint256"
        }
      ],
      "stateMutability": "payable",
      "type": "function"
    },
    {
      "inputs": [
        {
          "internalType": "address",
          "name": "pair",
          "type": "address"
        },
        {
          "internalType": "address",
          "name": "tokenA",
          "type": "address"
        },
        {
          "internalType": "address",
          "name": "tokenB",
          "type": "address"
        },
        {
          "internalType": "uint256",
          "name": "liquidity",
          "type": "uint256"
        },
        {
          "internalType": "uint256",
          "name": "amountAMin",
          "type": "uint256"
        },
        {
          "internalType": "uint256",
          "name": "amountBMin",
          "type": "uint256"
        },
        {
          "internalType": "address",
          "name": "to",
          "type": "address"
        },
        {
          "internalType": "uint256",
          "name": "deadline",
          "type": "uint256"
        }
      ],
      "name": "removeLiquidity",
      "outputs": [
        {
          "internalType": "uint256",
          "name": "amountA",
          "type": "uint256"
        },
        {
          "internalType": "uint256",
          "name": "amountB",
          "type": "uint256"
        }
      ],
      "stateMutability": "nonpayable",
      "type": "function"
    },
    {
      "inputs": [
        {
          "internalType": "address",
          "name": "pair",
          "type": "address"
        },
        {
          "internalType": "address",
          "name": "token",
          "type": "address"
        },
        {
          "internalType": "uint256",
          "name": "liquidity",
          "type": "uint256"
        },
        {
          "internalType": "uint256",
          "name": "amountTokenMin",
          "type": "uint256"
        },
        {
          "internalType": "uint256",
          "name": "amountETHMin",
          "type": "uint256"
        },
        {
          "internalType": "address",
          "name": "to",
          "type": "address"
        },
        {
          "internalType": "uint256",
          "name": "deadline",
          "type": "uint256"
        }
      ],
      "name": "removeLiquidityETH",
      "outputs": [
        {
          "internalType": "uint256",
          "name": "amountToken",
          "type": "uint256"
        },
        {
          "internalType": "uint256",
          "name": "amountETH",
          "type": "uint256"
        }
      ],
      "stateMutability": "nonpayable",
      "type": "function"
    },
    {
      "inputs": [
        {
          "internalType": "address",
          "name": "pair",
          "type": "address"
        },
        {
          "internalType": "address",
          "name": "token",
          "type": "address"
        },
        {
          "internalType": "uint256",
          "name": "liquidity",
          "type": "uint256"
        },
        {
          "internalType": "uint256",
          "name": "amountTokenMin",
          "type": "uint256"
        },
        {
          "internalType": "uint256",
          "name": "amountETHMin",
          "type": "uint256"
        },
        {
          "internalType": "address",
          "name": "to",
          "type": "address"
        },
        {
          "internalType": "uint256",
          "name": "deadline",
          "type": "uint256"
        }
      ],
      "name": "removeLiquidityETHSupportingFeeOnTransferTokens",
      "outputs": [
        {
          "internalType": "uint256",
          "name": "amountETH",
          "type": "uint256"
        }
      ],
      "stateMutability": "nonpayable",
      "type": "function"
    },
    {
      "inputs": [
        {
          "internalType": "address",
          "name": "pair",
          "type": "address"
        },
        {
          "internalType": "address",
          "name": "token",
          "type": "address"
        },
        {
          "internalType": "uint256",
          "name": "liquidity",
          "type": "uint256"
        },
        {
          "internalType": "uint256",
          "name": "amountTokenMin",
          "type": "uint256"
        },
        {
          "internalType": "uint256",
          "name": "amountETHMin",
          "type": "uint256"
        },
        {
          "internalType": "address",
          "name": "to",
          "type": "address"
        },
        {
          "internalType": "uint256",
          "name": "deadline",
          "type": "uint256"
        },
        {
          "internalType": "bool",
          "name": "approveMax",
          "type": "bool"
        },
        {
          "internalType": "uint8",
          "name": "v",
          "type": "uint8"
        },
        {
          "internalType": "bytes32",
          "name": "r",
          "type": "bytes32"
        },
        {
          "internalType": "bytes32",
          "name": "s",
          "type": "bytes32"
        }
      ],
      "name": "removeLiquidityETHWithPermit",
      "outputs": [
        {
          "internalType": "uint256",
          "name": "amountToken",
          "type": "uint256"
        },
        {
          "internalType": "uint256",
          "name": "amountETH",
          "type": "uint256"
        }
      ],
      "stateMutability": "nonpayable",
      "type": "function"
    },
    {
      "inputs": [
        {
          "internalType": "address",
          "name": "pair",
          "type": "address"
        },
        {
          "internalType": "address",
          "name": "token",
          "type": "address"
        },
        {
          "internalType": "uint256",
          "name": "liquidity",
          "type": "uint256"
        },
        {
          "internalType": "uint256",
          "name": "amountTokenMin",
          "type": "uint256"
        },
        {
          "internalType": "uint256",
          "name": "amountETHMin",
          "type": "uint256"
        },
        {
          "internalType": "address",
          "name": "to",
          "type": "address"
        },
        {
          "internalType": "uint256",
          "name": "deadline",
          "type": "uint256"
        },
        {
          "internalType": "bool",
          "name": "approveMax",
          "type": "bool"
        },
        {
          "internalType": "uint8",
          "name": "v",
          "type": "uint8"
        },
        {
          "internalType": "bytes32",
          "name": "r",
          "type": "bytes32"
        },
        {
          "internalType": "bytes32",
          "name": "s",
          "type": "bytes32"
        }
      ],
      "name": "removeLiquidityETHWithPermitSupportingFeeOnTransferTokens",
      "outputs": [
        {
          "internalType": "uint256",
          "name": "amountETH",
          "type": "uint256"
        }
      ],
      "stateMutability": "nonpayable",
      "type": "function"
    },
    {
      "inputs": [
        {
          "internalType": "address",
          "name": "pair",
          "type": "address"
        },
        {
          "internalType": "address",
          "name": "tokenA",
          "type": "address"
        },
        {
          "internalType": "address",
          "name": "tokenB",
          "type": "address"
        },
        {
          "internalType": "uint256",
          "name": "liquidity",
          "type": "uint256"
        },
        {
          "internalType": "uint256",
          "name": "amountAMin",
          "type": "uint256"
        },
        {
          "internalType": "uint256",
          "name": "amountBMin",
          "type": "uint256"
        },
        {
          "internalType": "address",
          "name": "to",
          "type": "address"
        },
        {
          "internalType": "uint256",
          "name": "deadline",
          "type": "uint256"
        },
        {
          "internalType": "bool",
          "name": "approveMax",
          "type": "bool"
        },
        {
          "internalType": "uint8",
          "name": "v",
          "type": "uint8"
        },
        {
          "internalType": "bytes32",
          "name": "r",
          "type": "bytes32"
        },
        {
          "internalType": "bytes32",
          "name": "s",
          "type": "bytes32"
        }
      ],
      "name": "removeLiquidityWithPermit",
      "outputs": [
        {
          "internalType": "uint256",
          "name": "amountA",
          "type": "uint256"
        },
        {
          "internalType": "uint256",
          "name": "amountB",
          "type": "uint256"
        }
      ],
      "stateMutability": "nonpayable",
      "type": "function"
    },
    {
      "inputs": [
        {
          "internalType": "address",
          "name": "tokenOut",
          "type": "address"
        },
        {
          "internalType": "uint256",
          "name": "amountOut",
          "type": "uint256"
        },
        {
          "internalType": "address[]",
          "name": "path",
          "type": "address[]"
        },
        {
          "internalType": "address",
          "name": "to",
          "type": "address"
        },
        {
          "internalType": "uint256",
          "name": "deadline",
          "type": "uint256"
        }
      ],
      "name": "swapETHForExactTokens",
      "outputs": [
        {
          "internalType": "uint256[]",
          "name": "amounts",
          "type": "uint256[]"
        }
      ],
      "stateMutability": "payable",
      "type": "function"
    },
    {
      "inputs": [
        {
          "internalType": "address",
          "name": "tokenOut",
          "type": "address"
        },
        {
          "internalType": "uint256",
          "name": "amountOutMin",
          "type": "uint256"
        },
        {
          "internalType": "address[]",
          "name": "path",
          "type": "address[]"
        },
        {
          "internalType": "address",
          "name": "to",
          "type": "address"
        },
        {
          "internalType": "uint256",
          "name": "deadline",
          "type": "uint256"
        }
      ],
      "name": "swapExactETHForTokens",
      "outputs": [
        {
          "internalType": "uint256[]",
          "name": "amounts",
          "type": "uint256[]"
        }
      ],
      "stateMutability": "payable",
      "type": "function"
    },
    {
      "inputs": [
        {
          "internalType": "address",
          "name": "tokenOut",
          "type": "address"
        },
        {
          "internalType": "uint256",
          "name": "amountOutMin",
          "type": "uint256"
        },
        {
          "internalType": "address[]",
          "name": "path",
          "type": "address[]"
        },
        {
          "internalType": "address",
          "name": "to",
          "type": "address"
        },
        {
          "internalType": "uint256",
          "name": "deadline",
          "type": "uint256"
        }
      ],
      "name": "swapExactETHForTokensSupportingFeeOnTransferTokens",
      "outputs": [],
      "stateMutability": "payable",
      "type": "function"
    },
    {
      "inputs": [
        {
          "internalType": "address",
          "name": "tokenIn",
          "type": "address"
        },
        {
          "internalType": "uint256",
          "name": "amountIn",
          "type": "uint256"
        },
        {
          "internalType": "uint256",
          "name": "amountOutMin",
          "type": "uint256"
        },
        {
          "internalType": "address[]",
          "name": "path",
          "type": "address[]"
        },
        {
          "internalType": "address",
          "name": "to",
          "type": "address"
        },
        {
          "internalType": "uint256",
          "name": "deadline",
          "type": "uint256"
        }
      ],
      "name": "swapExactTokensForETH",
      "outputs": [
        {
          "internalType": "uint256[]",
          "name": "amounts",
          "type": "uint256[]"
        }
      ],
      "stateMutability": "nonpayable",
      "type": "function"
    },
    {
      "inputs": [
        {
          "internalType": "address",
          "name": "tokenIn",
          "type": "address"
        },
        {
          "internalType": "uint256",
          "name": "amountIn",
          "type": "uint256"
        },
        {
          "internalType": "uint256",
          "name": "amountOutMin",
          "type": "uint256"
        },
        {
          "internalType": "address[]",
          "name": "path",
          "type": "address[]"
        },
        {
          "internalType": "address",
          "name": "to",
          "type": "address"
        },
        {
          "internalType": "uint256",
          "name": "deadline",
          "type": "uint256"
        }
      ],
      "name": "swapExactTokensForETHSupportingFeeOnTransferTokens",
      "outputs": [],
      "stateMutability": "nonpayable",
      "type": "function"
    },
    {
      "inputs": [
        {
          "internalType": "address",
          "name": "tokenIn",
          "type": "address"
        },
        {
          "internalType": "address",
          "name": "tokenOut",
          "type": "address"
        },
        {
          "internalType": "uint256",
          "name": "amountIn",
          "type": "uint256"
        },
        {
          "internalType": "uint256",
          "name": "amountOutMin",
          "type": "uint256"
        },
        {
          "internalType": "address[]",
          "name": "path",
          "type": "address[]"
        },
        {
          "internalType": "address",
          "name": "to",
          "type": "address"
        },
        {
          "internalType": "uint256",
          "name": "deadline",
          "type": "uint256"
        }
      ],
      "name": "swapExactTokensForTokens",
      "outputs": [
        {
          "internalType": "uint256[]",
          "name": "amounts",
          "type": "uint256[]"
        }
      ],
      "stateMutability": "nonpayable",
      "type": "function"
    },
    {
      "inputs": [
        {
          "internalType": "address",
          "name": "tokenIn",
          "type": "address"
        },
        {
          "internalType": "address",
          "name": "tokenOut",
          "type": "address"
        },
        {
          "internalType": "uint256",
          "name": "amountIn",
          "type": "uint256"
        },
        {
          "internalType": "uint256",
          "name": "amountOutMin",
          "type": "uint256"
        },
        {
          "internalType": "address[]",
          "name": "path",
          "type": "address[]"
        },
        {
          "internalType": "address",
          "name": "to",
          "type": "address"
        },
        {
          "internalType": "uint256",
          "name": "deadline",
          "type": "uint256"
        }
      ],
      "name": "swapExactTokensForTokensSupportingFeeOnTransferTokens",
      "outputs": [],
      "stateMutability": "nonpayable",
      "type": "function"
    },
    {
      "inputs": [
        {
          "internalType": "address",
          "name": "tokenIn",
          "type": "address"
        },
        {
          "internalType": "uint256",
          "name": "amountOut",
          "type": "uint256"
        },
        {
          "internalType": "uint256",
          "name": "amountInMax",
          "type": "uint256"
        },
        {
          "internalType": "address[]",
          "name": "path",
          "type": "address[]"
        },
        {
          "internalType": "address",
          "name": "to",
          "type": "address"
        },
        {
          "internalType": "uint256",
          "name": "deadline",
          "type": "uint256"
        }
      ],
      "name": "swapTokensForExactETH",
      "outputs": [
        {
          "internalType": "uint256[]",
          "name": "amounts",
          "type": "uint256[]"
        }
      ],
      "stateMutability": "nonpayable",
      "type": "function"
    },
    {
      "inputs": [
        {
          "internalType": "address",
          "name": "tokenIn",
          "type": "address"
        },
        {
          "internalType": "address",
          "name": "tokenOut",
          "type": "address"
        },
        {
          "internalType": "uint256",
          "name": "amountOut",
          "type": "uint256"
        },
        {
          "internalType": "uint256",
          "name": "amountInMax",
          "type": "uint256"
        },
        {
          "internalType": "address[]",
          "name": "path",
          "type": "address[]"
        },
        {
          "internalType": "address",
          "name": "to",
          "type": "address"
        },
        {
          "internalType": "uint256",
          "name": "deadline",
          "type": "uint256"
        }
      ],
      "name": "swapTokensForExactTokens",
      "outputs": [
        {
          "internalType": "uint256[]",
          "name": "amounts",
          "type": "uint256[]"
        }
      ],
      "stateMutability": "nonpayable",
      "type": "function"
    },
    {
      "stateMutability": "payable",
      "type": "receive"
    }
  ],
  "bytecode": "0x608060405234801561001057600080fd5b5061552b806100206000396000f3fe60806040526004361061019a5760003560e01c8063ad5c4648116100e1578063d0f2c82a1161008a578063ebb5d2e911610064578063ebb5d2e914610445578063fa3219d514610465578063fbf4513514610485578063fde1adda146104a5576101c2565b8063d0f2c82a146103e5578063d59e44ee14610405578063e1f4a78414610425576101c2565b8063bff51d71116100bb578063bff51d711461039d578063c45a0155146103bd578063ce819632146103d2576101c2565b8063ad5c464814610355578063b05f579e1461036a578063b56b681d1461037d576101c2565b8063674ee80b116101435780639c91fcb51161011d5780639c91fcb5146102e8578063a4aabb0814610315578063a67d0e3c14610335576101c2565b8063674ee80b146102af5780636cb49428146102c2578063840c34d0146102d5576101c2565b80634b75f54f116101745780634b75f54f1461023f5780634c17fd7c146102615780635cae03101461028f576101c2565b80630e2f024c146101c75780633990ba54146101fd578063485cc9551461021f576101c2565b366101c25760355473ffffffffffffffffffffffffffffffffffffffff1633146101c057fe5b005b600080fd5b3480156101d357600080fd5b506101e76101e23660046147c4565b6104b8565b6040516101f4919061539d565b60405180910390f35b61021061020b366004614753565b61059b565b6040516101f4939291906153ef565b34801561022b57600080fd5b506101c061023a36600461439a565b610606565b34801561024b57600080fd5b5061025461081b565b6040516101f49190614cf9565b34801561026d57600080fd5b5061028161027c366004614484565b610837565b6040516101f49291906153a6565b34801561029b57600080fd5b506101c06102aa36600461496b565b610947565b6101c06102bd3660046148f1565b610afc565b6101e76102d0366004614a63565b610d40565b6101e76102e3366004614aca565b610e15565b3480156102f457600080fd5b5061030861030336600461496b565b6111b1565b6040516101f49190614f88565b34801561032157600080fd5b506102816103303660046147c4565b611316565b34801561034157600080fd5b506101c06103503660046145ce565b6113ff565b34801561036157600080fd5b506102546115a8565b6103086103783660046148f1565b6115c4565b34801561038957600080fd5b50610281610398366004614753565b6116ef565b3480156103a957600080fd5b506103086103b8366004614665565b611794565b3480156103c957600080fd5b5061025461181f565b6101e76103e0366004614b3c565b61183b565b3480156103f157600080fd5b506101e761040036600461486e565b611ad2565b34801561041157600080fd5b506103086104203660046145ce565b611c3d565b34801561043157600080fd5b50610281610440366004614400565b611ce9565b34801561045157600080fd5b506101e7610460366004614753565b611d48565b34801561047157600080fd5b5061030861048036600461496b565b611e82565b34801561049157600080fd5b506102106104a0366004614540565b611ee7565b6103086104b33660046148f1565b611ff1565b600080856104c6578a6104e8565b7fffffffffffffffffffffffffffffffffffffffffffffffffffffffffffffffff5b6040517fd505accf00000000000000000000000000000000000000000000000000000000815290915073ffffffffffffffffffffffffffffffffffffffff8e169063d505accf90610549903390309086908d908c908c908c90600401614d1a565b600060405180830381600087803b15801561056357600080fd5b505af1158015610577573d6000803e3d6000fd5b5050505061058a8d8d8d8d8d8d8d611d48565b9d9c50505050505050505050505050565b600080600083428110156105e4576040517f08c379a00000000000000000000000000000000000000000000000000000000081526004016105db906151bb565b60405180910390fd5b6105f28b8b8b8b8b8b6120f2565b919d909c50909a5098505050505050505050565b600054610100900460ff168061061f575061061f612204565b8061062d575060005460ff16155b610663576040517f08c379a00000000000000000000000000000000000000000000000000000000081526004016105db906151f2565b600054610100900460ff161580156106c957600080547fffffffffffffffffffffffffffffffffffffffffffffffffffffffffffffff007fffffffffffffffffffffffffffffffffffffffffffffffffffffffffffff00ff909116610100171660011790555b603380547fffffffffffffffffffffffff00000000000000000000000000000000000000001673ffffffffffffffffffffffffffffffffffffffff8516908117909155604080517f4b75f54f0000000000000000000000000000000000000000000000000000000081529051634b75f54f91600480820192602092909190829003018186803b15801561075b57600080fd5b505afa15801561076f573d6000803e3d6000fd5b505050506040513d601f19601f82011682018060405250810190610793919061437e565b603480547fffffffffffffffffffffffff000000000000000000000000000000000000000090811673ffffffffffffffffffffffffffffffffffffffff9384161790915560358054909116918416919091179055801561081657600080547fffffffffffffffffffffffffffffffffffffffffffffffffffffffffffff00ff1690555b505050565b60345473ffffffffffffffffffffffffffffffffffffffff1681565b6000808642811015610875576040517f08c379a00000000000000000000000000000000000000000000000000000000081526004016105db906151bb565b600087610882578c6108a4565b7fffffffffffffffffffffffffffffffffffffffffffffffffffffffffffffffff5b90508f73ffffffffffffffffffffffffffffffffffffffff1663d505accf3330848d8c8c8c6040518863ffffffff1660e01b81526004016108eb9796959493929190614d1a565b600060405180830381600087803b15801561090557600080fd5b505af1158015610919573d6000803e3d6000fd5b505050505061092d8f8f8f8f8f8f8f61220a565b8093508194505050509c509c9a5050505050505050505050565b8042811015610982576040517f08c379a00000000000000000000000000000000000000000000000000000000081526004016105db906151bb565b6109af88338787600081811061099457fe5b90506020020160208101906109a99190614362565b8a612599565b6109ee888686808060200260200160405190810160405280939291908181526020018383602002808284376000920191909152503092506126c6915050565b6035546040517f70a0823100000000000000000000000000000000000000000000000000000000815260009173ffffffffffffffffffffffffffffffffffffffff16906370a0823190610a45903090600401614cf9565b60206040518083038186803b158015610a5d57600080fd5b505afa158015610a71573d6000803e3d6000fd5b505050506040513d601f19601f82011682018060405250810190610a959190614c58565b905086811015610ad1576040517f08c379a00000000000000000000000000000000000000000000000000000000081526004016105db9061524f565b610af073eeeeeeeeeeeeeeeeeeeeeeeeeeeeeeeeeeeeeeee8583612aae565b50505050505050505050565b8042811015610b37576040517f08c379a00000000000000000000000000000000000000000000000000000000081526004016105db906151bb565b34610b61818787600081610b4757fe5b9050602002016020810190610b5c9190614362565b612b78565b6040517f70a0823100000000000000000000000000000000000000000000000000000000815260009073ffffffffffffffffffffffffffffffffffffffff8a16906370a0823190610bb6908890600401614cf9565b60206040518083038186803b158015610bce57600080fd5b505afa158015610be2573d6000803e3d6000fd5b505050506040513d601f19601f82011682018060405250810190610c069190614c58565b9050610c69603560009054906101000a900473ffffffffffffffffffffffffffffffffffffffff168888808060200260200160405190810160405280939291908181526020018383602002808284376000920191909152508a92506126c6915050565b87610cfd828b73ffffffffffffffffffffffffffffffffffffffff166370a08231896040518263ffffffff1660e01b8152600401610ca79190614cf9565b60206040518083038186803b158015610cbf57600080fd5b505afa158015610cd3573d6000803e3d6000fd5b505050506040513d601f19601f82011682018060405250810190610cf79190614c58565b90612caf565b1015610d35576040517f08c379a00000000000000000000000000000000000000000000000000000000081526004016105db9061524f565b505050505050505050565b6033546035546040517f14572adb000000000000000000000000000000000000000000000000000000008152600092839273ffffffffffffffffffffffffffffffffffffffff918216926314572adb92610da5928c929116908a908a90600401614ef4565b602060405180830381600087803b158015610dbf57600080fd5b505af1158015610dd3573d6000803e3d6000fd5b505050506040513d601f19601f82011682018060405250810190610df7919061437e565b9050610e08818888600080886120f2565b9998505050505050505050565b60008142811015610e52576040517f08c379a00000000000000000000000000000000000000000000000000000000081526004016105db906151bb565b610e5c8685612cf2565b5060005b8751811015611149576000888281518110610e7757fe5b60200260200101515160011415610ee857610e9061415e565b898381518110610e9c57fe5b6020026020010151600081518110610eb057fe5b60200260200101519050610ee0816020015182604001518360000151846060015185608001518660a00151612d9f565b915050611134565b6000610ef261415e565b8a8481518110610efe57fe5b6020026020010151600181518110610f1257fe5b602002602001015190506060600167ffffffffffffffff81118015610f3657600080fd5b50604051908082528060200260200182016040528015610f60578160200160208202803683370190505b509050816000015181600081518110610f7557fe5b73ffffffffffffffffffffffffffffffffffffffff9283166020918202929092018101919091526034546033549185015160408087015160608881015192517f67f84adc0000000000000000000000000000000000000000000000000000000081529096948516956367f84adc95610ff7959116939092918990600401614e74565b60006040518083038186803b15801561100f57600080fd5b505afa158015611023573d6000803e3d6000fd5b505050506040513d6000823e601f3d9081017fffffffffffffffffffffffffffffffffffffffffffffffffffffffffffffffe01682016040526110699190810190614bb8565b90508060008151811061107857fe5b6020026020010151935082608001518411156110c0576040517f08c379a00000000000000000000000000000000000000000000000000000000081526004016105db90615071565b50506110ca61415e565b8b85815181106110d657fe5b60200260200101516000815181106110ea57fe5b602002602001015190506111168160200151826040015183600001518685608001518660a00151612d9f565b935061113082602001518360000151858560600151612f27565b5050505b61113e8185613160565b935050600101610e60565b5083821115611184576040517f08c379a00000000000000000000000000000000000000000000000000000000081526004016105db90615184565b61119785336111928861319d565b612aae565b506111a686336111928961319d565b505095945050505050565b606081428110156111ee576040517f08c379a00000000000000000000000000000000000000000000000000000000081526004016105db906151bb565b61125089603560009054906101000a900473ffffffffffffffffffffffffffffffffffffffff168a8a8a8a808060200260200160405190810160405280939291908181526020018383602002808284376000920191909152506132b192505050565b915061129389338888600081811061126457fe5b90506020020160208101906112799190614362565b8560008151811061128657fe5b6020026020010151612599565b6112d389838888808060200260200160405190810160405280939291908181526020018383602002808284376000920191909152503092506133e5915050565b61130973eeeeeeeeeeeeeeeeeeeeeeeeeeeeeeeeeeeeeeee85846001865103815181106112fc57fe5b6020026020010151612aae565b5050979650505050505050565b600080600086611326578b611348565b7fffffffffffffffffffffffffffffffffffffffffffffffffffffffffffffffff5b6040517fd505accf00000000000000000000000000000000000000000000000000000000815290915073ffffffffffffffffffffffffffffffffffffffff8f169063d505accf906113a9903390309086908e908d908d908d90600401614d1a565b600060405180830381600087803b1580156113c357600080fd5b505af11580156113d7573d6000803e3d6000fd5b505050506113ea8e8e8e8e8e8e8e6116ef565b909f909e509c50505050505050505050505050565b804281101561143a576040517f08c379a00000000000000000000000000000000000000000000000000000000081526004016105db906151bb565b61144c89338787600081811061099457fe5b6040517f70a0823100000000000000000000000000000000000000000000000000000000815260009073ffffffffffffffffffffffffffffffffffffffff8a16906370a08231906114a1908790600401614cf9565b60206040518083038186803b1580156114b957600080fd5b505afa1580156114cd573d6000803e3d6000fd5b505050506040513d601f19601f820116820180604052508101906114f19190614c58565b90506115328a8787808060200260200160405190810160405280939291908181526020018383602002808284376000920191909152508992506126c6915050565b86611570828b73ffffffffffffffffffffffffffffffffffffffff166370a08231886040518263ffffffff1660e01b8152600401610ca79190614cf9565b1015610af0576040517f08c379a00000000000000000000000000000000000000000000000000000000081526004016105db9061524f565b60355473ffffffffffffffffffffffffffffffffffffffff1681565b60608142811015611601576040517f08c379a00000000000000000000000000000000000000000000000000000000081526004016105db906151bb565b6035546116289073ffffffffffffffffffffffffffffffffffffffff168989348a8a613683565b915061164f8260008151811061163a57fe5b602002602001015187876000818110610b4757fe5b60355460408051602080890282810182019093528882526116a89373ffffffffffffffffffffffffffffffffffffffff16928692918b918b918291908501908490808284376000920191909152508a92506133e5915050565b816000815181106116b557fe5b60200260200101513411156116e4576116e433836000815181106116d557fe5b602002602001015134036137b7565b509695505050505050565b600080824281101561172d576040517f08c379a00000000000000000000000000000000000000000000000000000000081526004016105db906151bb565b603554611757908b908b9073ffffffffffffffffffffffffffffffffffffffff168b8b8b3061220a565b909350915061176789868561386b565b61178673eeeeeeeeeeeeeeeeeeeeeeeeeeeeeeeeeeeeeeee8684612aae565b505097509795505050505050565b606081428110156117d1576040517f08c379a00000000000000000000000000000000000000000000000000000000081526004016105db906151bb565b6117de89898989896132b1565b91506118078933876000815181106117f257fe5b60200260200101518560008151811061128657fe5b611813898387876133e5565b50979650505050505050565b60335473ffffffffffffffffffffffffffffffffffffffff1681565b60008142811015611878576040517f08c379a00000000000000000000000000000000000000000000000000000000081526004016105db906151bb565b6118828786612cf2565b50600061188e8761398e565b611937576040517f70a0823100000000000000000000000000000000000000000000000000000000815273ffffffffffffffffffffffffffffffffffffffff8816906370a08231906118e4903390600401614cf9565b60206040518083038186803b1580156118fc57600080fd5b505afa158015611910573d6000803e3d6000fd5b505050506040513d601f19601f820116820180604052508101906119349190614c58565b90505b60005b89518110156119e7576000805b8b838151811061195357fe5b6020026020010151518110156119d15761196b61415e565b8c848151811061197757fe5b6020026020010151828151811061198a57fe5b6020026020010151905060008211156119a557606081018390525b6119c6816020015182604001518360000151846060015185608001516139c0565b925050600101611947565b506119dc8186613160565b94505060010161193a565b506119f3873385612aae565b50611a0288336111928b61319d565b50611a0c8761398e565b15611a505784831015611a4b576040517f08c379a00000000000000000000000000000000000000000000000000000000081526004016105db9061514d565b611ac6565b84611a8e828973ffffffffffffffffffffffffffffffffffffffff166370a08231336040518263ffffffff1660e01b8152600401610ca79190614cf9565b1015611ac6576040517f08c379a00000000000000000000000000000000000000000000000000000000081526004016105db9061503a565b50509695505050505050565b6033546040517f14572adb000000000000000000000000000000000000000000000000000000008152600091829173ffffffffffffffffffffffffffffffffffffffff909116906314572adb90611b33908c908c908a908a90600401614ef4565b602060405180830381600087803b158015611b4d57600080fd5b505af1158015611b61573d6000803e3d6000fd5b505050506040513d601f19601f82011682018060405250810190611b85919061437e565b9050611b97818a8a8a8a600080613e53565b50506040517f6a62784200000000000000000000000000000000000000000000000000000000815273ffffffffffffffffffffffffffffffffffffffff821690636a62784290611beb908690600401614cf9565b602060405180830381600087803b158015611c0557600080fd5b505af1158015611c19573d6000803e3d6000fd5b505050506040513d601f19601f82011682018060405250810190610e089190614c58565b60608142811015611c7a576040517f08c379a00000000000000000000000000000000000000000000000000000000081526004016105db906151bb565b611c888a8a8a8a8a8a613683565b9150611c9c8a338888600081811061126457fe5b611cdc8a838888808060200260200160405190810160405280939291908181526020018383602002808284376000920191909152508a92506133e5915050565b5098975050505050505050565b6000808242811015611d27576040517f08c379a00000000000000000000000000000000000000000000000000000000081526004016105db906151bb565b611d368b8b8b8b8b8b8b61220a565b909c909b509950505050505050505050565b60008142811015611d85576040517f08c379a00000000000000000000000000000000000000000000000000000000081526004016105db906151bb565b603554611db0908a908a9073ffffffffffffffffffffffffffffffffffffffff168a8a8a308a611ce9565b6040517f70a08231000000000000000000000000000000000000000000000000000000008152909350611e6391508990869073ffffffffffffffffffffffffffffffffffffffff8316906370a0823190611e0e903090600401614cf9565b60206040518083038186803b158015611e2657600080fd5b505afa158015611e3a573d6000803e3d6000fd5b505050506040513d601f19601f82011682018060405250810190611e5e9190614c58565b61386b565b61130973eeeeeeeeeeeeeeeeeeeeeeeeeeeeeeeeeeeeeeee8584612aae565b60608142811015611ebf576040517f08c379a00000000000000000000000000000000000000000000000000000000081526004016105db906151bb565b603554611250908a9073ffffffffffffffffffffffffffffffffffffffff168a8a8a8a613683565b60008060008342811015611f27576040517f08c379a00000000000000000000000000000000000000000000000000000000081526004016105db906151bb565b611f368d8d8d8d8d8d8d613e53565b6040517f6a627842000000000000000000000000000000000000000000000000000000008152919550935073ffffffffffffffffffffffffffffffffffffffff8e1690636a62784290611f8d908990600401614cf9565b602060405180830381600087803b158015611fa757600080fd5b505af1158015611fbb573d6000803e3d6000fd5b505050506040513d601f19601f82011682018060405250810190611fdf9190614c58565b91505099509950999650505050505050565b6060814281101561202e576040517f08c379a00000000000000000000000000000000000000000000000000000000081526004016105db906151bb565b60355460408051602080890282810182019093528882526120879373ffffffffffffffffffffffffffffffffffffffff16928c9234928d928d918d9182918501908490808284376000920191909152506132b192505050565b91506120998260008151811061163a57fe5b60355460408051602080890282810182019093528882526116e49373ffffffffffffffffffffffffffffffffffffffff16928692918b918b918291908501908490808284376000920191909152508a92506133e5915050565b60355460009081908190612123908a908a9073ffffffffffffffffffffffffffffffffffffffff168a348b8b613e8e565b909350915061213488338b86612599565b61213e828a612b78565b6040517f6a62784200000000000000000000000000000000000000000000000000000000815273ffffffffffffffffffffffffffffffffffffffff8a1690636a62784290612190908790600401614cf9565b602060405180830381600087803b1580156121aa57600080fd5b505af11580156121be573d6000803e3d6000fd5b505050506040513d601f19601f820116820180604052508101906121e29190614c58565b9050813411156121f8576121f8338334036137b7565b96509650969350505050565b303b1590565b6033546040517fe5e31b13000000000000000000000000000000000000000000000000000000008152600091829173ffffffffffffffffffffffffffffffffffffffff9091169063e5e31b1390612265908c90600401614cf9565b60206040518083038186803b15801561227d57600080fd5b505afa158015612291573d6000803e3d6000fd5b505050506040513d601f19601f820116820180604052508101906122b59190614c3c565b6122eb576040517f08c379a00000000000000000000000000000000000000000000000000000000081526004016105db90615366565b6040517f23b872dd00000000000000000000000000000000000000000000000000000000815273ffffffffffffffffffffffffffffffffffffffff8a16906323b872dd906123419033908d908b90600401614d68565b602060405180830381600087803b15801561235b57600080fd5b505af115801561236f573d6000803e3d6000fd5b505050506040513d601f19601f820116820180604052508101906123939190614c3c565b506000808a73ffffffffffffffffffffffffffffffffffffffff166389afcb44866040518263ffffffff1660e01b81526004016123d09190614cf9565b6040805180830381600087803b1580156123e957600080fd5b505af11580156123fd573d6000803e3d6000fd5b505050506040513d601f19601f820116820180604052508101906124219190614c70565b6034546040517f544caa5600000000000000000000000000000000000000000000000000000000815292945090925060009173ffffffffffffffffffffffffffffffffffffffff9091169063544caa5690612482908e908e90600401614d99565b604080518083038186803b15801561249957600080fd5b505afa1580156124ad573d6000803e3d6000fd5b505050506040513d601f19601f820116820180604052508101906124d191906143d2565b5090508073ffffffffffffffffffffffffffffffffffffffff168b73ffffffffffffffffffffffffffffffffffffffff161461250e578183612511565b82825b909550935087851015612550576040517f08c379a00000000000000000000000000000000000000000000000000000000081526004016105db90615116565b8684101561258a576040517f08c379a00000000000000000000000000000000000000000000000000000000081526004016105db906150a8565b50505097509795505050505050565b600060608573ffffffffffffffffffffffffffffffffffffffff166323b872dd8686866040516024016125ce93929190614d68565b6040516020818303038152906040529060e01b6020820180517bffffffffffffffffffffffffffffffffffffffffffffffffffffffff838183161783525050505060405161261c9190614cdd565b6000604051808303816000865af19150503d8060008114612659576040519150601f19603f3d011682016040523d82523d6000602084013e61265e565b606091505b50915091508180156126885750805115806126885750808060200190518101906126889190614c3c565b6126be576040517f08c379a00000000000000000000000000000000000000000000000000000000081526004016105db90615309565b505050505050565b8260005b8351811015612aa75760008482815181106126e157fe5b602002602001015190506000806000806000806000806000603460009054906101000a900473ffffffffffffffffffffffffffffffffffffffff1673ffffffffffffffffffffffffffffffffffffffff1663b33d96b0603360009054906101000a900473ffffffffffffffffffffffffffffffffffffffff168c8f6040518463ffffffff1660e01b815260040161277a93929190614dc0565b60c06040518083038186803b15801561279257600080fd5b505afa1580156127a6573d6000803e3d6000fd5b505050506040513d601f19601f820116820180604052508101906127ca91906149f0565b955095509550955095509550612813858d73ffffffffffffffffffffffffffffffffffffffff166370a082318d6040518263ffffffff1660e01b8152600401610ca79190614cf9565b6034546040517f671a11b5000000000000000000000000000000000000000000000000000000008152919a5073ffffffffffffffffffffffffffffffffffffffff169063671a11b590612874908c9089908990899089908990600401615405565b60206040518083038186803b15801561288c57600080fd5b505afa1580156128a0573d6000803e3d6000fd5b505050506040513d601f19601f820116820180604052508101906128c49190614c58565b97508596505050505050506000808573ffffffffffffffffffffffffffffffffffffffff16630dfe16816040518163ffffffff1660e01b815260040160206040518083038186803b15801561291857600080fd5b505afa15801561292c573d6000803e3d6000fd5b505050506040513d601f19601f82011682018060405250810190612950919061437e565b73ffffffffffffffffffffffffffffffffffffffff168873ffffffffffffffffffffffffffffffffffffffff161461298a5783600061298e565b6000845b91509150600060018b510388106129a557896129bd565b8a88600101815181106129b457fe5b60200260200101515b604080516000815260208101918290527f022c0d9f0000000000000000000000000000000000000000000000000000000090915290915073ffffffffffffffffffffffffffffffffffffffff88169063022c0d9f90612a2590869086908690602481016153b4565b600060405180830381600087803b158015612a3f57600080fd5b505af1158015612a53573d6000803e3d6000fd5b505050507fddac40937f35385a34f721af292e5a83fc5b840f722bff57c2fc71adba708c48878686604051612a8a93929190614f58565b60405180910390a15091965050600190940193506126ca92505050565b5050505050565b600081612abd57506001612b71565b612ac68461398e565b15612b62576035546040517f2e1a7d4d00000000000000000000000000000000000000000000000000000000815273ffffffffffffffffffffffffffffffffffffffff90911690632e1a7d4d90612b2190859060040161539d565b600060405180830381600087803b158015612b3b57600080fd5b505af1158015612b4f573d6000803e3d6000fd5b50505050612b5d83836137b7565b612b6d565b612b6d84848461386b565b5060015b9392505050565b603560009054906101000a900473ffffffffffffffffffffffffffffffffffffffff1673ffffffffffffffffffffffffffffffffffffffff1663d0e30db0836040518263ffffffff1660e01b81526004016000604051808303818588803b158015612be257600080fd5b505af1158015612bf6573d6000803e3d6000fd5b50506035546040517fa9059cbb00000000000000000000000000000000000000000000000000000000815273ffffffffffffffffffffffffffffffffffffffff909116935063a9059cbb9250612c53915084908690600401614f32565b602060405180830381600087803b158015612c6d57600080fd5b505af1158015612c81573d6000803e3d6000fd5b505050506040513d601f19601f82011682018060405250810190612ca59190614c3c565b612cab57fe5b5050565b80820382811115612cec576040517f08c379a00000000000000000000000000000000000000000000000000000000081526004016105db90614fcc565b92915050565b6000612cfd8361398e565b15612d8a57603560009054906101000a900473ffffffffffffffffffffffffffffffffffffffff1673ffffffffffffffffffffffffffffffffffffffff1663d0e30db0346040518263ffffffff1660e01b81526004016000604051808303818588803b158015612d6c57600080fd5b505af1158015612d80573d6000803e3d6000fd5b5050505050612d96565b612d9683333085612599565b50600192915050565b60408051600180825281830190925260009160609190602080830190803683370190505090508581600081518110612dd357fe5b73ffffffffffffffffffffffffffffffffffffffff92831660209182029290920101526034546033546040517f67f84adc000000000000000000000000000000000000000000000000000000008152606093928316926367f84adc92612e46929116908d908d908c908990600401614e74565b60006040518083038186803b158015612e5e57600080fd5b505afa158015612e72573d6000803e3d6000fd5b505050506040513d6000823e601f3d9081017fffffffffffffffffffffffffffffffffffffffffffffffffffffffffffffffe0168201604052612eb89190810190614bb8565b905080600081518110612ec757fe5b6020026020010151925084831115612f0b576040517f08c379a00000000000000000000000000000000000000000000000000000000081526004016105db90615071565b611ac689888584600181518110612f1e57fe5b60200260200101515b612f3284848461386b565b600083905060008173ffffffffffffffffffffffffffffffffffffffff16630dfe16816040518163ffffffff1660e01b815260040160206040518083038186803b158015612f7f57600080fd5b505afa158015612f93573d6000803e3d6000fd5b505050506040513d601f19601f82011682018060405250810190612fb7919061437e565b905060008060008373ffffffffffffffffffffffffffffffffffffffff168973ffffffffffffffffffffffffffffffffffffffff1614612ffa578560008561307b565b6000868673ffffffffffffffffffffffffffffffffffffffff1663d21220a76040518163ffffffff1660e01b815260040160206040518083038186803b15801561304357600080fd5b505afa158015613057573d6000803e3d6000fd5b505050506040513d601f19601f8201168201806040525081019061307b919061437e565b604080516000815260208101918290527f022c0d9f00000000000000000000000000000000000000000000000000000000909152929550909350915073ffffffffffffffffffffffffffffffffffffffff86169063022c0d9f906130e890869086903090602481016153b4565b600060405180830381600087803b15801561310257600080fd5b505af1158015613116573d6000803e3d6000fd5b505050507fddac40937f35385a34f721af292e5a83fc5b840f722bff57c2fc71adba708c4888878360405161314d93929190614f58565b60405180910390a1505050505050505050565b80820182811015612cec576040517f08c379a00000000000000000000000000000000000000000000000000000000081526004016105db906150df565b60006131a88261398e565b1561325a576035546040517f70a0823100000000000000000000000000000000000000000000000000000000815273ffffffffffffffffffffffffffffffffffffffff909116906370a0823190613203903090600401614cf9565b60206040518083038186803b15801561321b57600080fd5b505afa15801561322f573d6000803e3d6000fd5b505050506040513d601f19601f820116820180604052508101906132539190614c58565b90506132ac565b6040517f70a0823100000000000000000000000000000000000000000000000000000000815273ffffffffffffffffffffffffffffffffffffffff8316906370a0823190613203903090600401614cf9565b919050565b6034546033546040517f119220a500000000000000000000000000000000000000000000000000000000815260609273ffffffffffffffffffffffffffffffffffffffff9081169263119220a59261331792909116908a908a908a908990600401614e74565b60006040518083038186803b15801561332f57600080fd5b505afa158015613343573d6000803e3d6000fd5b505050506040513d6000823e601f3d9081017fffffffffffffffffffffffffffffffffffffffffffffffffffffffffffffffe01682016040526133899190810190614bb8565b9050828160018351038151811061339c57fe5b602002602001015110156133dc576040517f08c379a00000000000000000000000000000000000000000000000000000000081526004016105db9061524f565b95945050505050565b8360005b83518110156126be57600084828151811061340057fe5b6020026020010151905060008173ffffffffffffffffffffffffffffffffffffffff16630dfe16816040518163ffffffff1660e01b815260040160206040518083038186803b15801561345257600080fd5b505afa158015613466573d6000803e3d6000fd5b505050506040513d601f19601f8201168201806040525081019061348a919061437e565b9050600087846001018151811061349d57fe5b6020026020010151905060008060008473ffffffffffffffffffffffffffffffffffffffff168873ffffffffffffffffffffffffffffffffffffffff16146134e85783600086613569565b6000848773ffffffffffffffffffffffffffffffffffffffff1663d21220a76040518163ffffffff1660e01b815260040160206040518083038186803b15801561353157600080fd5b505afa158015613545573d6000803e3d6000fd5b505050506040513d601f19601f82011682018060405250810190613569919061437e565b925092509250600060018b51038810613582578961359a565b8a886001018151811061359157fe5b60200260200101515b604080516000815260208101918290527f022c0d9f0000000000000000000000000000000000000000000000000000000090915290915073ffffffffffffffffffffffffffffffffffffffff88169063022c0d9f9061360290879087908690602481016153b4565b600060405180830381600087803b15801561361c57600080fd5b505af1158015613630573d6000803e3d6000fd5b505050507fddac40937f35385a34f721af292e5a83fc5b840f722bff57c2fc71adba708c4887868460405161366793929190614f58565b60405180910390a150965050600190940193506133e992505050565b6034546033546040517f67f84adc00000000000000000000000000000000000000000000000000000000815260609273ffffffffffffffffffffffffffffffffffffffff908116926367f84adc926136eb92909116908b908b908b908a908a90600401614df0565b60006040518083038186803b15801561370357600080fd5b505afa158015613717573d6000803e3d6000fd5b505050506040513d6000823e601f3d9081017fffffffffffffffffffffffffffffffffffffffffffffffffffffffffffffffe016820160405261375d9190810190614bb8565b9050838160008151811061376d57fe5b602002602001015111156137ad576040517f08c379a00000000000000000000000000000000000000000000000000000000081526004016105db90615071565b9695505050505050565b6040805160008082526020820190925273ffffffffffffffffffffffffffffffffffffffff84169083906040516137ee9190614cdd565b60006040518083038185875af1925050503d806000811461382b576040519150601f19603f3d011682016040523d82523d6000602084013e613830565b606091505b5050905080610816576040517f08c379a00000000000000000000000000000000000000000000000000000000081526004016105db906152ac565b600060608473ffffffffffffffffffffffffffffffffffffffff1663a9059cbb858560405160240161389e929190614f32565b6040516020818303038152906040529060e01b6020820180517bffffffffffffffffffffffffffffffffffffffffffffffffffffffff83818316178352505050506040516138ec9190614cdd565b6000604051808303816000865af19150503d8060008114613929576040519150601f19603f3d011682016040523d82523d6000602084013e61392e565b606091505b50915091508180156139585750805115806139585750808060200190518101906139589190614c3c565b612aa7576040517f08c379a00000000000000000000000000000000000000000000000000000000081526004016105db90615003565b73ffffffffffffffffffffffffffffffffffffffff811673eeeeeeeeeeeeeeeeeeeeeeeeeeeeeeeeeeeeeeee14919050565b60006139cd86858561386b565b600080600080600080603460009054906101000a900473ffffffffffffffffffffffffffffffffffffffff1673ffffffffffffffffffffffffffffffffffffffff1663b33d96b0603360009054906101000a900473ffffffffffffffffffffffffffffffffffffffff168c8f6040518463ffffffff1660e01b8152600401613a5793929190614dc0565b60c06040518083038186803b158015613a6f57600080fd5b505afa158015613a83573d6000803e3d6000fd5b505050506040513d601f19601f82011682018060405250810190613aa791906149f0565b95509550955095509550506000613af1868e73ffffffffffffffffffffffffffffffffffffffff166370a082318e6040518263ffffffff1660e01b8152600401610ca79190614cf9565b6034546040517f671a11b500000000000000000000000000000000000000000000000000000000815291925073ffffffffffffffffffffffffffffffffffffffff169063671a11b590613b529084908a908a908a908a908a90600401615405565b60206040518083038186803b158015613b6a57600080fd5b505afa158015613b7e573d6000803e3d6000fd5b505050506040513d601f19601f82011682018060405250810190613ba29190614c58565b965050505050505060008673ffffffffffffffffffffffffffffffffffffffff166370a08231306040518263ffffffff1660e01b8152600401613be59190614cf9565b60206040518083038186803b158015613bfd57600080fd5b505afa158015613c11573d6000803e3d6000fd5b505050506040513d601f19601f82011682018060405250810190613c359190614c58565b90506000808773ffffffffffffffffffffffffffffffffffffffff16630dfe16816040518163ffffffff1660e01b815260040160206040518083038186803b158015613c8057600080fd5b505afa158015613c94573d6000803e3d6000fd5b505050506040513d601f19601f82011682018060405250810190613cb8919061437e565b73ffffffffffffffffffffffffffffffffffffffff168a73ffffffffffffffffffffffffffffffffffffffff1614613cf257836000613cf6565b6000845b604080516000815260208101918290527f022c0d9f00000000000000000000000000000000000000000000000000000000909152919350915073ffffffffffffffffffffffffffffffffffffffff89169063022c0d9f90613d6090859085903090602481016153b4565b600060405180830381600087803b158015613d7a57600080fd5b505af1158015613d8e573d6000803e3d6000fd5b505050507fddac40937f35385a34f721af292e5a83fc5b840f722bff57c2fc71adba708c4888858b604051613dc593929190614f58565b60405180910390a1613e0a838a73ffffffffffffffffffffffffffffffffffffffff166370a08231306040518263ffffffff1660e01b8152600401610ca79190614cf9565b945085851015613e46576040517f08c379a00000000000000000000000000000000000000000000000000000000081526004016105db9061524f565b5050505095945050505050565b600080613e6589898989898989613e8e565b9092509050613e7688338b85612599565b613e8287338b84612599565b97509795505050505050565b6034546040517f3274946100000000000000000000000000000000000000000000000000000000815260009182918291829173ffffffffffffffffffffffffffffffffffffffff90911690633274946190613ef1908e908e908e90600401614dc0565b604080518083038186803b158015613f0857600080fd5b505afa158015613f1c573d6000803e3d6000fd5b505050506040513d601f19601f82011682018060405250810190613f409190614c70565b91509150816000148015613f52575080155b15613f6257879350869250611786565b6034546040517fad615dec00000000000000000000000000000000000000000000000000000000815260009173ffffffffffffffffffffffffffffffffffffffff169063ad615dec90613fbd908c90879087906004016153ef565b60206040518083038186803b158015613fd557600080fd5b505afa158015613fe9573d6000803e3d6000fd5b505050506040513d601f19601f8201168201806040525081019061400d9190614c58565b905087811161405b5785811015614050576040517f08c379a00000000000000000000000000000000000000000000000000000000081526004016105db906150a8565b88945092508261258a565b6034546040517fad615dec00000000000000000000000000000000000000000000000000000000815260009173ffffffffffffffffffffffffffffffffffffffff169063ad615dec906140b6908c90879089906004016153ef565b60206040518083038186803b1580156140ce57600080fd5b505afa1580156140e2573d6000803e3d6000fd5b505050506040513d601f19601f820116820180604052508101906141069190614c58565b90508981111561411257fe5b8781101561414c576040517f08c379a00000000000000000000000000000000000000000000000000000000081526004016105db90615116565b9c979b50969950505050505050505050565b6040518060c00160405280600073ffffffffffffffffffffffffffffffffffffffff168152602001600073ffffffffffffffffffffffffffffffffffffffff168152602001600073ffffffffffffffffffffffffffffffffffffffff1681526020016000815260200160008152602001600081525090565b8035612cec816154b0565b60008083601f8401126141f2578182fd5b50813567ffffffffffffffff811115614209578182fd5b602083019150836020808302850101111561422357600080fd5b9250929050565b600082601f83011261423a578081fd5b813561424d61424882615460565b615439565b818152915060208083019084810160005b84811015614346578135870188603f82011261427957600080fd5b8381013561428961424882615460565b81815285810190604084810160c08502860182018e10156142a957600080fd5b600095505b8486101561432f5760c0818f0312156142c657600080fd5b6142d060c0615439565b6142da8f836141d6565b81526142e88f8b84016141d6565b8a8201526142f88f8484016141d6565b81840152606082810135908201526080808301359082015260a080830135908201528452600195909501949288019260c0016142ae565b50508752505050928201929082019060010161425e565b505050505092915050565b803560ff81168114612cec57600080fd5b600060208284031215614373578081fd5b8135612b71816154b0565b60006020828403121561438f578081fd5b8151612b71816154b0565b600080604083850312156143ac578081fd5b82356143b7816154b0565b915060208301356143c7816154b0565b809150509250929050565b600080604083850312156143e4578182fd5b82516143ef816154b0565b60208401519092506143c7816154b0565b600080600080600080600080610100898b03121561441c578384fd5b8835614427816154b0565b97506020890135614437816154b0565b96506040890135614447816154b0565b9550606089013594506080890135935060a0890135925060c089013561446c816154b0565b8092505060e089013590509295985092959890939650565b6000806000806000806000806000806000806101808d8f0312156144a6578586fd5b8c356144b1816154b0565b9b5060208d01356144c1816154b0565b9a5060408d01356144d1816154b0565b995060608d0135985060808d0135975060a08d0135965060c08d01356144f6816154b0565b955060e08d013594506101008d013561450e816154d5565b935061451e8e6101208f01614351565b92506101408d013591506101608d013590509295989b509295989b509295989b565b60008060008060008060008060006101208a8c03121561455e578283fd5b8935614569816154b0565b985060208a0135614579816154b0565b975060408a0135614589816154b0565b965060608a0135955060808a0135945060a08a0135935060c08a0135925060e08a01356145b5816154b0565b809250506101008a013590509295985092959850929598565b60008060008060008060008060e0898b0312156145e9578182fd5b88356145f4816154b0565b97506020890135614604816154b0565b96506040890135955060608901359450608089013567ffffffffffffffff81111561462d578283fd5b6146398b828c016141e1565b90955093505060a089013561464d816154b0565b8092505060c089013590509295985092959890939650565b600080600080600080600060e0888a03121561467f578081fd5b873561468a816154b0565b965060208881013561469b816154b0565b96506040890135955060608901359450608089013567ffffffffffffffff8111156146c4578283fd5b8901601f81018b136146d4578283fd5b80356146e261424882615460565b81815283810190838501858402850186018f10156146fe578687fd5b8694505b83851015614728576147148f826141d6565b835260019490940193918501918501614702565b50809750505050505061473e8960a08a016141d6565b915060c0880135905092959891949750929550565b600080600080600080600060e0888a03121561476d578081fd5b8735614778816154b0565b96506020880135614788816154b0565b955060408801359450606088013593506080880135925060a08801356147ad816154b0565b8092505060c0880135905092959891949750929550565b60008060008060008060008060008060006101608c8e0312156147e5578485fd5b8b356147f0816154b0565b9a5060208c0135614800816154b0565b995060408c0135985060608c0135975060808c0135965060a08c0135614825816154b0565b955060c08c0135945060e08c013561483c816154d5565b935061484c8d6101008e01614351565b92506101208c013591506101408c013590509295989b509295989b9093969950565b600080600080600080600060e0888a031215614888578081fd5b8735614893816154b0565b965060208801356148a3816154b0565b9550604088013594506060880135935060808801356148c1816154e3565b925060a08801356148d1816154e3565b915060c08801356148e1816154b0565b8091505092959891949750929550565b60008060008060008060a08789031215614909578384fd5b8635614914816154b0565b955060208701359450604087013567ffffffffffffffff811115614936578485fd5b61494289828a016141e1565b9095509350506060870135614956816154b0565b80925050608087013590509295509295509295565b600080600080600080600060c0888a031215614985578081fd5b8735614990816154b0565b96506020880135955060408801359450606088013567ffffffffffffffff8111156149b9578182fd5b6149c58a828b016141e1565b90955093505060808801356149d9816154b0565b8092505060a0880135905092959891949750929550565b60008060008060008060c08789031215614a08578384fd5b8651614a13816154b0565b8096505060208701519450604087015193506060870151614a33816154e3565b6080880151909350614a44816154e3565b60a0880151909250614a55816154e3565b809150509295509295509295565b600080600080600060a08688031215614a7a578283fd5b8535614a85816154b0565b9450602086013593506040860135614a9c816154e3565b92506060860135614aac816154e3565b91506080860135614abc816154b0565b809150509295509295909350565b600080600080600060a08688031215614ae1578283fd5b853567ffffffffffffffff811115614af7578384fd5b614b038882890161422a565b9550506020860135614b14816154b0565b93506040860135614b24816154b0565b94979396509394606081013594506080013592915050565b60008060008060008060c08789031215614b54578384fd5b863567ffffffffffffffff811115614b6a578485fd5b614b7689828a0161422a565b9650506020870135614b87816154b0565b94506040870135614b97816154b0565b959894975094956060810135955060808101359460a0909101359350915050565b60006020808385031215614bca578182fd5b825167ffffffffffffffff811115614be0578283fd5b8301601f81018513614bf0578283fd5b8051614bfe61424882615460565b8181528381019083850185840285018601891015614c1a578687fd5b8694505b83851015611813578051835260019490940193918501918501614c1e565b600060208284031215614c4d578081fd5b8151612b71816154d5565b600060208284031215614c69578081fd5b5051919050565b60008060408385031215614c82578182fd5b505080516020909101519092909150565b60008151808452614cab816020860160208601615480565b601f017fffffffffffffffffffffffffffffffffffffffffffffffffffffffffffffffe0169290920160200192915050565b60008251614cef818460208701615480565b9190910192915050565b73ffffffffffffffffffffffffffffffffffffffff91909116815260200190565b73ffffffffffffffffffffffffffffffffffffffff97881681529590961660208601526040850193909352606084019190915260ff16608083015260a082015260c081019190915260e00190565b73ffffffffffffffffffffffffffffffffffffffff9384168152919092166020820152604081019190915260600190565b73ffffffffffffffffffffffffffffffffffffffff92831681529116602082015260400190565b73ffffffffffffffffffffffffffffffffffffffff93841681529183166020830152909116604082015260600190565b600060a0820173ffffffffffffffffffffffffffffffffffffffff808a1684526020818a1681860152818916604086015287606086015260a060808601528286845260c086019050879350845b87811015614e64578435614e50816154b0565b841682529382019390820190600101614e3d565b509b9a5050505050505050505050565b600060a0820173ffffffffffffffffffffffffffffffffffffffff8089168452602081891681860152818816604086015286606086015260a0608086015282865180855260c0870191508288019450855b81811015614ee3578551851683529483019491830191600101614ec5565b50909b9a5050505050505050505050565b73ffffffffffffffffffffffffffffffffffffffff948516815292909316602083015263ffffffff9081166040830152909116606082015260800190565b73ffffffffffffffffffffffffffffffffffffffff929092168252602082015260400190565b73ffffffffffffffffffffffffffffffffffffffff93841681526020810192909252909116604082015260600190565b6020808252825182820181905260009190848201906040850190845b81811015614fc057835183529284019291840191600101614fa4565b50909695505050505050565b60208082526015908201527f64732d6d6174682d7375622d756e646572666c6f770000000000000000000000604082015260600190565b6020808252601f908201527f5472616e7366657248656c7065723a205452414e534645525f4641494c454400604082015260600190565b60208082526012908201527f3c6d696e546f74616c416d6f756e744f75740000000000000000000000000000604082015260600190565b6020808252601e908201527f526f757465723a204558434553534956455f494e5055545f414d4f554e540000604082015260600190565b6020808252601d908201527f526f757465723a20494e53554646494349454e545f425f414d4f554e54000000604082015260600190565b60208082526014908201527f64732d6d6174682d6164642d6f766572666c6f77000000000000000000000000604082015260600190565b6020808252601d908201527f526f757465723a20494e53554646494349454e545f415f414d4f554e54000000604082015260600190565b6020808252600d908201527f4552525f4c494d49545f4f555400000000000000000000000000000000000000604082015260600190565b6020808252600c908201527f4552525f4c494d49545f494e0000000000000000000000000000000000000000604082015260600190565b6020808252600f908201527f526f757465723a20455850495245440000000000000000000000000000000000604082015260600190565b6020808252602e908201527f436f6e747261637420696e7374616e63652068617320616c726561647920626560408201527f656e20696e697469616c697a6564000000000000000000000000000000000000606082015260800190565b60208082526022908201527f526f757465723a20494e53554646494349454e545f4f55545055545f414d4f5560408201527f4e54000000000000000000000000000000000000000000000000000000000000606082015260800190565b60208082526023908201527f5472616e7366657248656c7065723a204554485f5452414e534645525f46414960408201527f4c45440000000000000000000000000000000000000000000000000000000000606082015260800190565b60208082526024908201527f5472616e7366657248656c7065723a205452414e534645525f46524f4d5f464160408201527f494c454400000000000000000000000000000000000000000000000000000000606082015260800190565b60208082526014908201527f526f757465723a20496e76616c69642070616972000000000000000000000000604082015260600190565b90815260200190565b918252602082015260400190565b600085825284602083015273ffffffffffffffffffffffffffffffffffffffff84166040830152608060608301526137ad6080830184614c93565b9283526020830191909152604082015260600190565b9586526020860194909452604085019290925263ffffffff908116606085015290811660808401521660a082015260c00190565b60405181810167ffffffffffffffff8111828210171561545857600080fd5b604052919050565b600067ffffffffffffffff821115615476578081fd5b5060209081020190565b60005b8381101561549b578181015183820152602001615483565b838111156154aa576000848401525b50505050565b73ffffffffffffffffffffffffffffffffffffffff811681146154d257600080fd5b50565b80151581146154d257600080fd5b63ffffffff811681146154d257600080fdfea2646970667358221220e7f81c70f7a1a0b694699b57a88b6464cb0846644a528c96b28a64e838a5e69364736f6c634300060c0033",
  "linkReferences": {},
  "deployedLinkReferences": {}
}